:020000040800F2
:1000000038250020310200089145000859410008B8
:100010008D450008A10800080971000800000000D3
:10002000000000000000000000000000D94A0008A5
:10003000510C000800000000A1450008DD4A00083E
:100040004B0200084B0200084B0200084B0200085C
:100050004B0200084B0200084B0200084B0200084C
:100060004B0200084B0200084B0200084B0200083C
:100070004B0200084B0200084B0200084B0200082C
:100080004B0200084B0200084B0200084B0200081C
:10009000A50800084B0200084B0200084B020008AC
:1000A0004B0200084B0200084B0200084B020008FC
:1000B0004B0200084B0200084B0200084B020008EC
:1000C0004B0200084B0200084B0200084B020008DC
:1000D0004B0200084B0200084B0200084B020008CC
:1000E0004B0200084B0200084B0200084B020008BC
:1000F0004B0200084B0200084B0200084B020008AC
:100100004B0200084B0200084B0200084B0200089B
:100110004B0200084B0200084B0200084B0200088B
:100120004B0200084B0200084B0200084B0200087B
:100130004B0200084B0200084B0200084B0200086B
:100140004B0200084B0200084B02000895450008CE
:100150004B0200084B0200084B0200084B0200084B
:100160004B0200084B0200084B0200084B0200083B
:100170004B0200084B0200084B0200080000000080
:100180004B0200084B02000800F002F800F040F8B3
:100190000AA090E8000C82448344AAF10107DA45E2
:1001A00001D100F035F8AFF2090EBAE80F0013F0F4
:1001B000010F18BFFB1A43F001031847407A0000F3
:1001C000607A0000103A24BF78C878C1FAD8520784
:1001D00024BF30C830C144BF04680C6070470000C1
:1001E0000023002400250026103A28BF78C1FBD840
:1001F000520728BF30C148BF0B6070471FB507F0DA
:10020000E3FC9DE8030000F0D9F91FBD10B510BD57
:1002100000F0C4FA1146FFF7F1FF06F09DFF00F071
:10022000E2FA03B4FFF7F2FF03BC00F013FB000097
:100230000948804709480047FEE7FEE7FEE7FEE77A
:10024000FEE7FEE7FEE7FEE7FEE7FEE704480549B6
:10025000054A064B70470000E14A00088901000882
:10026000381F0020382500203821002038210020A8
:1002700070B5064600F086F9056806F10B0020F01F
:100280000704B4429CBF002070BD2B466A68BAB117
:100290001068A04210D304F1080188423CBF5068A6
:1002A000586007D35168101941601168091B01603B
:1002B00058601460101D70BD13465268002AE7D1C3
:1002C0002146284600F066F90028DED170BD70B5E1
:1002D0000446051F00F056F90068002C14BF44685E
:1002E00070BD002C18BFAC423CBF20466468F8D3F8
:1002F00001680A18AA4218BF456003D12A6805465A
:100300001144016028684119A1421CBF6C6070BD96
:100310006168696021680844286070BD53EA020C76
:1003200000F069802DE9F04B4FF00006002B1FBF55
:10033000B3FA83F503FA05F424FA05F65E4012BF1A
:100340001643B2FA82F502FA05F4C5F120051EBF84
:1003500022FA05FC44EA0C04203556EA044C4FEA24
:10036000144418BF641C4FF000084FF0000990427D
:1003700071EB030C39D3002919BFB1FA81F701FAE7
:1003800007F6B0FA80F700FA07F6C7F120071EBF9C
:1003900020FA07FC46EA0C062037B6FBF4FCA7EB74
:1003A0000507103F07F01F0BCBF120062CFA06F6CD
:1003B0000CFA0BFB44BFB3460026202FA4BF5E46B9
:1003C0004FF0000B5BEA060C08BF4FF0010B19EB76
:1003D0000B0948EB0608ABFB027C06FB02CC0BFBCF
:1003E00003CCC01B71EB0C01C1E70B460246414632
:1003F0004846BDE8F08B13B5084318BF4FF0FF30F7
:100400000146AFF30080BDE81C407047014A00F090
:100410000BB9000000000020032A40F2308010F0E9
:10042000030C00F0158011F8013BBCF1020F62448F
:1004300098BF11F801CB00F8013B38BF11F8013B20
:10044000A2F1040298BF00F801CB38BF00F8013BCD
:1004500011F0030300F00A81083AC0F0088051F857
:10046000043B083A51F804CBA0E80810F5E7121D48
:100470005CBF51F8043B40F8043BAFF30080D20767
:1004800024BF11F8013B11F801CB48BF11F8012B33
:1004900024BF00F8013B00F801CB48BF00F8012B56
:1004A000704702F0FF0343EA032242EA024200F0EF
:1004B00011B94FF0000200B5134694469646203914
:1004C00022BFA0E80C50A0E80C50B1F12001BFF40D
:1004D000F7AF090728BFA0E80C5048BF0CC05DF873
:1004E00004EB890028BF40F8042B08BF704748BFC1
:1004F00020F8022B11F0804F18BF00F8012B704735
:1005000030B44FF0013C50F8042B51F8043BCCFAC6
:1005100052F4D51A20D1FCB950F8042B51F8043B01
:10052000CCFA52F4D51A17D1B4B950F8042B51F8BB
:10053000043BCCFA52F4D51A0ED16CB950F8042B06
:1005400051F8043BCCFA52F4D51A05D1002CDAD07C
:1005500030BC4FF00000704729BAB1FA81F111F0B8
:100560001801D1F120008440F2D1CA40CB4012F0F2
:10057000FF0213F0FF0330BCD01A7047704770477A
:100580007047000000487047100100207047704716
:100590007047704738B504460A4600206946AFF3F5
:1005A0000080002808BF38BD02460099204600F0B0
:1005B000B5F8012038BD012000F0CAB8F8B5AFF396
:1005C0000080054600200C46102000BF0646A819F2
:1005D000A0420DD9324669460020AFF300800700E3
:1005E00008BF00F0B5F80098A04218BF0546C4192E
:1005F000FFF7C8FF05600746F01D20F00700461909
:10060000284600F00AF8B44208BFF8BDA21B3146E4
:100610003868BDE8F84000F081B800210160C0E909
:1006200001107047102070472DE9F04115460E4625
:10063000040002D12C6804B90BA4204600F09FF8F6
:100640000444207870B127463146384600F087F8D8
:100650000444207810B1002004F8010B38462C60C7
:10066000BDE8F0810027F9E70000000010B5203A4E
:10067000C0F00B80B1E81850A0E81850B1E818504D
:10068000A0E81850203ABFF4F5AF5FEA027C24BF1F
:10069000B1E81850A0E8185044BF18C918C0BDE808
:1006A00010405FEA827C24BF51F8043B40F8043BD1
:1006B00008BF7047D20728BF31F8023B48BF11F886
:1006C000012B28BF20F8023B48BF00F8012B7047E0
:1006D0004FF000020429C0F0128010F0030C3FF428
:1006E000EAAECCF1040CBCF1020F18BF00F8012BEC
:1006F000A8BF20F8022BA1EB0C01FFF7DCBE5FEADC
:10070000C17C24BF00F8012B00F8012B48BF00F882
:10071000012B7047004870470801002003464068DD
:100720008C46002818BF88423CBF03464068F8D377
:1007300018681844884207D00CF1030020F0070025
:10074000001D411A521A0146081D0A60FFF7BFBD7D
:1007500010B500F057F8BDE8104000F04DB830B5C6
:1007600003461D781DB10A4603E0AC4201D1181AB8
:1007700030BD12F8014B002CF7D15B1CF1E730B50E
:1007800003461D783DB10A4612F8014B1CB1AC423C
:10079000FAD15B1CF5E7181A30BD70477546FFF7B4
:1007A000B9FFAE4605006946534620F0070085466E
:1007B00018B020B5FFF74AFDBDE820404FF0000615
:1007C0004FF000074FF000084FF0000BAC46ACE8CC
:1007D000C009ACE8C009ACE8C009ACE8C00921F028
:1007E00007018D46704710B50446AFF300802046E0
:1007F000BDE81040FFF715BD002801D000F02AB871
:100800007047000010B5012805D0002103A000F0BA
:1008100027F8012010BD09A1F8E70000534947520D
:10082000544D454D3A204F7574206F6620686561C0
:1008300070206D656D6F7279000000003A20486588
:100840006170206D656D6F727920636F7272757063
:100850007465640001491820ABBEFEE72600020063
:1008600070B505460C460A2000E06D1C00F011F83A
:1008700035B128780028F8D102E0641C00F009F8AE
:1008800014B120780028F8D1BDE870400A20AFF3F9
:10089000008008B569468DF800000320ABBE08BD96
:1008A000FEE7000041F6AC00C2F2000000F07CBBA5
:1008B00080B582B040F26812C2F200024FF40073B9
:1008C000114641F8083F030A507041F6AC004FF062
:1008D000000E4FF0080C1370C2F2000001ABC2E929
:1008E00004EEC2F818C0C2F802E0A2F806E000F078
:1008F000FBF902B080BD0000002070470020704767
:1009000010B541F2D054C2F2000440F6D051C2F208
:1009100000012046002204F07BFB40F2D051C2F2DD
:100920000001204604F066FB002010BD2DE9F04FC9
:10093000C5B00D680446FA2D00F33081012D0094F6
:1009400006DB06A821462A46FFF766FD01E000BF48
:10095000002506A82021415547F6FA35C0F60005C6
:100960002946FFF753FD834602A840F29C18061D56
:100970004FF00109002093A7C2F200084FF0010ACE
:10098000019015E02D2908BF6442049400202946F7
:10099000FFF73CFDD8F800209DF80810834610466C
:1009A000324600F057F98246BAF1000F00F0DC80C1
:1009B000BBF1000F00F0C4809BF800000A2800F093
:1009C000BF8058463946FFF79BFD88B358467EA145
:1009D000FFF796FD002800F0A58058467CA1FFF7A0
:1009E0008FFD002800F0A28058467BA1FFF788FD0C
:1009F000002800F09D8058467AA1FFF781FD00286D
:100A000000F09880584679A1FFF77AFD81460020D2
:100A10002946FFF7FBFC8346B9F1000F4FF00109AF
:100A2000019808BF01200190BAF1000FC0D19BE0EE
:100A300003208DF80800002029460024FFF7E6FC7B
:100A40000178A1F12D02B2FA82F25309C25C3AB3E5
:100A500018440230002400BF04EB840410F8013C69
:100A600002EB4402A2F13004D3B104EB8404027817
:100A700003EB4403A3F1300492B104EB8404437804
:100A800002EB4402A2F1300453B104EB840203EB05
:100A900042038278A3F13004002A00F10400DBD184
:100AA0002D2908BF64420020294603940024FFF743
:100AB000ADFC0178A1F12D02B2FA82F25309C25CB9
:100AC000002A3FF45FAF18440230002404EB840492
:100AD00010F8013C02EB4402002BA2F130043FF479
:100AE00051AF04EB8404027803EB4403002AA3F122
:100AF00030043FF447AF04EB8404437802EB440234
:100B0000002BA2F130043FF43DAF04EB840203EB71
:100B100042038278A3F13004002A00F10400D5D109
:100B200030E700BF8DF8089030E700BF042003E0F5
:100B3000052001E0022000BF8DF8080026E700BF75
:100B40000198009CC0B2012828D1D8F8000000F01C
:100B500079F841F2D050C2F20000D0F8BC02D0F8CF
:100B60001402D8B925A10EE0D8F8000003F0AEFFBA
:100B700041F2D050C2F20000D0F8BC02D0F814020A
:100B8000009C58B91AA141F2D055C2F2000528467E
:100B9000082204F03DFA284604F0C8FA41F2D05584
:100BA000C2F200052846214604F024FA04462846ED
:100BB00004F0FAF954EA000118BF014648B245B002
:100BC000BDE8F08F61636300667265650000000038
:100BD000696D70616374000063616C696272617455
:100BE000650000007761697400000000656E6400B4
:100BF0006661696C3030310000000000737563631A
:100C000030303100000000000020704710B541F284
:100C1000D052C2F20002D2F8BC22D2F81432002B19
:100C20001CBF012010BD41F2D054C2F200040A469C
:100C30000146204604F0ECF92046BDE8104004F0DF
:100C400075BA0000D0E904120160C260704700006C
:100C50007047000010B5D0F804E00369734504BF85
:100C6000002010BDD0F814C03BB10CF1010C9CFB6E
:100C7000FEF303FB1ECCC0F814C08369D2F800E079
:100C800003EB0C14C4F804E04469D2F804E003EB6D
:100C90000414C4F808E04469926803EB0414E260A9
:100CA00002694FEA0C1C03F80C10511C0161012071
:100CB00010BD00007047000090F82020013A012A82
:100CC00008D8006800F1140200201368194311606D
:100CD000704700BF00F1240201204FF48021136807
:100CE000194311607047000010B590F820E0D0F86B
:100CF00000C0AEF1010EBEF1010FDCF808E011D822
:100D00001EF0E05F18D0CEF3016EBEF1030F1DD1CF
:100D100000F1240101204FF400020B681A430A601D
:100D200010BD00BF00F1240101204FF480220B68A8
:100D30001A430A6010BD00BF00F1240101204FF4E6
:100D400000120B681A430A6010BD00BF012000FAB0
:100D50000EF01860886818B14B6840EAC30001E0E3
:100D600008684005D1E9033403430CEB0E10C0F8CA
:100D70008031C0F88441097D012905D100F5C27197
:100D80000B6843F480730B605168C0F88C111268D3
:100D900000F5C071C0F88821002001220B681A43B9
:100DA0000A6010BDB0B590F82020013A012A2FD872
:100DB00046F20060C4F20000026842F001020260E4
:100DC000026822F47C520260D1F814E0CC694A6ACD
:100DD0000368012C43EA022202600EF01F024FF06A
:100DE000010303FA02F2C3696FEA020C23EA020369
:100DF000C36113D02CBBC36803EA0C03C360CB6888
:100E00008C8844EA034300EBCE0423640B4611E0D4
:100E1000416A41F4802141620120B0BDC36813439F
:100E2000C3600B688C8844EA034300EBCE04236460
:100E300001F10C038C681B8843EA044300EBCE04E9
:100E4000636443688D6943EA0204D1F810E0096ADB
:100E5000002D08BF03EA0C0444604369BEF1000F93
:100E600043EA020408BF03EA0C040129446102D1E9
:100E7000C1691143C161016821F0010101600020D5
:100E8000B0BD00007047000010B590F82040013C54
:100E9000012C71D8D0F800C0002977D0DCF81040C0
:100EA000A40777D00CEB011CDCF8B0410CF5D87E20
:100EB00014F004049460DCF8B04119BFE4085460F5
:100EC000640D1460DEF80040002904F00204D460D0
:100ED000DCF8B44104F00F041461DCF8B441C4F34D
:100EE00007249461DCF8B4414FEA14445461DCF8FF
:100EF000B8211A70026802EB0112D2F8B8214FEA49
:100F000012225A70026802EB0112D2F8B8214FEA9D
:100F100012429A70026802EB0112D2F8B8214FEA2D
:100F20001262DA70026802EB0112D2F8BC211A7167
:100F3000026802EB0112D2F8BC214FEA12225A7168
:100F4000026802EB0112D2F8BC214FEA12429A71F8
:100F5000026802EB0112D2F8BC214FEA1262DA7188
:100F6000006814BF00F1100100F10C0100202022E4
:100F70000B681A430A6010BD00F1240101204FF4F0
:100F800080220B681A430A6010BD00BFDCF80C40D9
:100F9000A40787D100F1240101204FF400120B684F
:100FA0001A430A6010BD00002DE9F04F81B00446DD
:100FB00000684669D0F804908768D0F80CB0D0F883
:100FC00010A0D0F81880F10704D1002530071DD4F7
:100FD00024E000BFF90710D00121BA07816009D4CD
:100FE000780700F1AF80380700F1B680204600F0A6
:100FF0001DFA02E0204600F01BFA0025F80500F17A
:101000008780F80300F1B180300707D51BF010008E
:1010100004D0206845F400751021C160700708D520
:101020001BF0080005D020680821C160204600F0B0
:10103000A1F9B00706D52068C068800702D0204615
:1010400000F09AF9700607D51AF0100004D0206855
:1010500045F4806510210161B00608D51AF008003A
:1010600005D0206808210161204600F0ABF9F006A8
:1010700006D520680069800702D0204600F0A4F958
:10108000B00308D519F0100005D020681021416088
:10109000204600F09BF9F00308D519F0080005D0B0
:1010A000206808214160204600F0CCF9300440F16E
:1010B0009B805FEA497040F1948006F4807008EAF2
:1010C000102028435FEA8871014648BF41F00201C1
:1010D000B20558BF01465FEA48700D4648BF45F06B
:1010E0000405700558BF0D46300540F17A8018F0B0
:1010F000700000F076801038000905286CD8DFE811
:1011000000F003595D61656945F0080564E000BFC2
:1011100020684FF48071BA0581600BD4780515D42E
:1011200038051DD4204600F085F9F8037FF56CAF33
:101130001BE000BF204600F07FF9F8037FF564AFA5
:1011400013E000BF4FF4006558E700BF05F50055F8
:10115000F8037FF559AF08E04FF480554EE700BF24
:1011600005F58045F8037FF54FAF20684FF48031D7
:10117000BA0381600AD4780310D4380314D420460B
:1011800000F05CF930073FF541AF47E7204600F03B
:1011900057F930073FF53AAF40E700BF05F5004586
:1011A00030073FF533AF39E705F5803530073FF5B8
:1011B0002DAF33E745F010050EE000BF45F02005E8
:1011C0000AE000BF45F0400506E000BF45F080059D
:1011D00002E000BF45F480752068816921F070014C
:1011E000816120680421416055B1606A40EA0501CF
:1011F0002046616201B0BDE8F04FFFF743BE00BF7B
:1012000001B0BDE8F08F0000B0B5C8B1044690F859
:10121000200010B9204600F071F82068016841F004
:101220000101016000F002FA054600BF2068416834
:10123000C90707D100F0FAF9401B0B28F6D312E0DA
:101240000120B0BD016821F00201016000F0EEF95B
:10125000054600BF2068416889070DD500F0E6F912
:10126000401B0B28F6D3606A052140F40030606211
:10127000012084F82010B0BD217E0268012922F0EF
:10128000800208BF80320260617E0268012922F07C
:10129000400208BF40320260A17E0268012922F0AC
:1012A000200208BF20320260E17E0268012922F09C
:1012B000100218BF10320260217F0268012922F05B
:1012C000080208BF08320260617F0268012922F02B
:1012D000040208BF04320260D4E901C2D4E9033534
:1012E00061691A432A431143ACF101021143C16100
:1012F00000200121606284F82010B0BD80B586B066
:10130000016846F20040C4F20000814202D006B0FB
:1013100080BD00BF002143F630020191C4F20202F9
:10132000136900F5D43043F000731361136903F0BF
:1013300000730193019B0191136843F0080313604C
:101340001268022302F008020192019ACDE90231EB
:1013500009210322059101A90192049200F088F865
:1013600014200021002201F00FF8142000F0FCFFEF
:1013700006B080BD7047000080B58AB003AA01ABFB
:101380000021FFF781FD039840F20121884217D127
:1013900041F6C460C2F200000188BDF8042001815A
:1013A00011BABDF80620090C018011BABDF8082059
:1013B000090C418011BA9DF80A20090C81808271C4
:1013C0000AB080BD70470000704700007047000001
:1013D000B0B5044690F8200001281DD1022084F801
:1013E00020002068016821F00101016000F01EF971
:1013F000054600BF20684068C00713D000F016F90A
:10140000401B0B28F6D3606A40F400306062052070
:1014100084F820000120B0BD606A40F400206062C2
:101420000120B0BD00206062B0BD00007047000028
:1014300070470000704700007047000070470000D0
:101440007047000070470000B0B5044600F0EEF8A9
:10145000054640F21000C2F200000078611C18BF7F
:10146000044400BF00F0E2F8401BA042FAD3B0BD34
:101470002DE9F04F82B000F13E4241F6004502F105
:10148000FF77C4F2020508224FEAB726A84208BF38
:101490000722072E38BF4FEAB7224FF0010A002477
:1014A00000274FF00008009208E000BF023708F163
:1014B0000108202F04F1040400F0B4800E680AFA39
:1014C00008F916EA090FF1D0D1F804A00AF0030BCD
:1014D000ABF10106012E17D80322866802FA07FE37
:1014E000CA6826EA0E06BA40324382604268CAF3EE
:1014F000001522EA090205FA08F54FEA480C6FEADE
:101500000E062A4342600BE00322BA40D643BBF1E9
:10151000030FBC4604D1BC464FF0030B22E000BFD2
:10152000C2688D68324005FA0CF52A43BBF1020F00
:10153000C26017D16FF0030202EA5802024404F0BD
:101540001C030F25D2F820E005FA03FA0D692EEAF4
:101550000A0E05FA03F343EA0E031362D1F804A05E
:101560000AF0030B02680BFA0CF332401A431AF428
:10157000403F4FF0010A026098D0002243F6440336
:101580000192C4F202031A6843F6004E42F480420C
:101590001A601A68C4F2010E02F480420192019AA4
:1015A00028F003024FF6084C7244CFF6FF7C52F845
:1015B0000C3004F00C060F25B540AB43009D05FA36
:1015C00006F6334342F80C30DEF808204B6842EA56
:1015D000090643F60C4CDD0258BF22EA0906CEF894
:1015E0000860C4F2010CDCF800209D0242EA090602
:1015F00058BF22EA0906CCF80060DEF804209D03FB
:1016000042EA090658BF22EA0906CEF80460DEF86D
:101610000020DB0342EA090658BF22EA0906CEF899
:10162000006043E702B0BDE8F08F000041F634707F
:10163000C2F200000068704770B5B8B3044690F875
:101640003D0028B9002084F83C00204600F0EEFD63
:10165000242084F83D002068016821F00101016028
:10166000016841F400410160016821F4004101601A
:1016700001F020FF48F28041C0F21E0140F6001345
:10168000D4F804E088424FF00001C0F23D0348F274
:10169000A16C4FF0000238BF01219842C0F2010C4A
:1016A00038BF0122E64538BF0A460AB1012070BDA5
:1016B0004DF68361C4F21B31A0FB01122168950C29
:1016C0004B684FF4967623F03F0343EA9243754309
:1016D00044F6D3564B60C1F262060B6AA5FB065670
:1016E000B50923F03F03E64538BF950C6A1C1A4341
:1016F0000A62CA6948F2A0664CF6FF73C0F201069E
:10170000B64522EA03020BD801384FEA4E03B0FB7C
:10171000F3F001306FF31F30042898BF04201EE05F
:10172000A368013863B119230EFB03F3B0FBF3F098
:1017300001306FF31F3078B100F5804008E000BF42
:101740000EEB4E03B0FBF3F001306FF31F3028B106
:1017500000F5004003E000BF012000E0012010433D
:10176000C8610868D4E9072320F0C000104318437B
:101770000860886848F2FF3204F10C0690434CCEB2
:1017800018431043A5698860C86820F0FF00304303
:101790002843C860086840F001000860002020214C
:1017A000206484F83D10206384F83E0070BD000082
:1017B0002DE9F04182B01F46164688460446FFF7E1
:1017C00035FF94F83D1020291CD105462068816919
:1017D000890713D5FFF72AFF401B1928F6D90020E7
:1017E0002021206384F83D1084F83E00216C41F0F4
:1017F0002001216484F83C0004E000BF94F83C1010
:10180000012903D1022002B0BDE8F081012184F852
:101810003C100168C90703D1016841F00101016072
:10182000016821F400610160222184F83D1010213B
:1018300084F83E100021216466626785618D2185F0
:101840000021CFF6FF71E162E16A026811F5803F85
:1018500042F48062026018BF012919D1016841F485
:10186000807101604169089EC90724D1711C18D09C
:10187000002E00F0CB8000BFFFF7D8FE401BB04227
:1018800000F2C68020684169C907F5D013E000BFA7
:101890000829E3D0216B1129E0D0E3E74169C907AA
:1018A00009D14169C90706D14169C90704BF416926
:1018B0005FEAC171F2D02169B1F5804F08D148F0DB
:1018C0000101C9B201614169890740F1CC8003E19E
:1018D000062101EAD81707F1F00101614169090702
:1018E00038D44169721C01F4806113D0002940F0A2
:1018F000EA80002E00F01082FFF798FE401BB042F5
:1019000000F20C8220684169090723D44169490526
:10191000F2D5D8E0002940F0D6804169090719D4F2
:101920004169490500F1CF804169090712D4416935
:10193000490500F1C880416909070BD4416949058F
:1019400000F1C1804169090704D441694905E4D522
:10195000B9E000BF5FFA88F101614169890739D4B4
:101960004169721C01F4806114D0002940F0AB8001
:10197000002E00F0D181FFF759FE401BB04200F26B
:10198000CD8120684169890724D441694905F2D590
:1019900099E000BF002940F096804169890719D479
:1019A0004169490500F18F804169890712D4416975
:1019B000490500F18880416989070BD441694905CF
:1019C00000F181804169890704D441694905E4D562
:1019D00079E000BF00210191416901918169019184
:1019E0000199016841F4807101604169C90734D1EE
:1019F000711C28D056B1FFF719FE401BB04207D822
:101A000020684169C907F6D027E000BFFFF70EFE46
:101A100000202021206384F83D1084F83E00216CD2
:101A200041F020012164216884F83C000868C00569
:101A300044BF4FF400702064012002B0BDE8F08183
:101A40004169C90709D14169C90706D14169C90777
:101A500004BF41695FEAC171F2D047F0F101016151
:101A60004169890738D44169721C01F4806111D041
:101A700049BB002E00F05081FFF7D8FD401BB0425B
:101A800000F24C8120684169890725D441694905E4
:101A9000F2D518E0B9B9416989071DD441694905F2
:101AA00011D44169890717D4416949050BD44169AB
:101AB000890711D44169490505D4416989070BD4C7
:101AC00041694905E7D5016841F4007101606FF48F
:101AD00080614161042022E1218D99B1022927D042
:101AE00001292DD1026822F4806202600022019255
:101AF0004269019282690192019A026842F400727D
:101B0000026028E000210191416901918169019100
:101B10000199016841F400710160202084F83D00C2
:101B2000002084F83E0084F83C0002B0BDE8F0815B
:101B3000026822F480620260026842F4006202E0FD
:101B4000026842F4806202600022019242690192BE
:101B500080690190019888B2032817D802283FD0E5
:101B6000012851D1002E00F099802068014651F8DB
:101B7000142F520600F196800868C00600F1F2802A
:101B8000FFF754FD401BB042EFD9E0E086B100BF43
:101B90002068014651F8142F52060ED40868C0067A
:101BA00000F1E080FFF742FD401BB042F0D9CEE0EB
:101BB00020684169490640F1C3800069616A087084
:101BC000606A218D01300139606221852268638D50
:101BD000013B638553695B0770D51169017064E04F
:101BE00020684169490745D4711C6BD0002E00F074
:101BF000CD80FFF71BFD401BB04200F2C98020687A
:101C000041694907F5D535E02068416949070ED497
:101C1000711C65D0002E00F0B980FFF707FD401B56
:101C2000B04200F2B580206841694907F5D50168E6
:101C300021F4806101600069616A0870606A218D29
:101C400001300139606221852068618D013961852B
:101C5000416949070ED4711C50D0002E00F09680C7
:101C6000FFF7E4FC401BB04200F29280206841691B
:101C70004907F5D5016841F4007101600069616AA6
:101C80000870606A2268411C6162218D01392185DA
:101C9000618D013961851169417006E020684169F3
:101CA00049064DD50069616A0870606A218D01306E
:101CB000013960622185608D0138608508047FF4F8
:101CC0004AAF2AE741694907D4D4416949075CBF53
:101CD00041695FEA4171CDD441694907F2D5C9E74D
:101CE00041694907A3D4416949075CBF41695FEA7B
:101CF00041719CD441694907F2D598E74169490788
:101D0000B8D4416949075CBF41695FEA4171B1D408
:101D100041694907F2D5ADE7FFF788FC2020002193
:101D20002022216384F83D2084F83E10226C104369
:101D3000206484F83C10012002B0BDE8F08100BFAF
:101D400050F8141FC90601460CD4FFF76FFC0020A1
:101D50002021206384F83D1084F83E00206C40F080
:101D600020000AE06FF010000860002020212063AE
:101D700084F83D1084F83E00206C2064002084F834
:101D80003C00012002B0BDE8F08100BFFFF74EFC2F
:101D900000202021206384F83D1084F83E00216C4F
:101DA00041F02001216484F83C00012002B0BDE82C
:101DB000F08100002DE9F04381B01F4616468846A9
:101DC0000446FFF733FC94F83D10202920D1054646
:101DD00020688169890717D5FFF728FC401B19285F
:101DE000F6D900202021206384F83D1084F83E00BD
:101DF000216C022641F02001216484F83C00304629
:101E000001B0BDE8F08300BF94F83C10012905D172
:101E10000226304601B0BDE8F08300BF012184F8FE
:101E20003C100168C90703D1016841F0010101605C
:101E3000016821F400610160212184F83D10102126
:101E400084F83E100021216466626785618D2185DA
:101E50000021CFF6FF71E162E16A11F5803F18BF02
:101E6000012919D1016841F4807101604169DDF8EF
:101E70002090C90723D119F1010116D0B9F1000F43
:101E800046D000BFFFF7D2FB401B484542D8206830
:101E90004169C907F6D012E00829E3D0216B122965
:101EA000E0D0E3E74169C90709D14169C90706D113
:101EB0004169C90704BF41695FEAC171F2D0216974
:101EC000B1F5804F02D1FE2161E000BF062101EA99
:101ED000D811F03101614169090757D4416919F1FD
:101EE000010201F480612FD0002946D1B9F1000F21
:101EF00000F04281FFF79AFB401B484500F23E810B
:101F000020684169090741D441694905F2D534E0A7
:101F1000FFF78CFB00202021206384F83D1084F81B
:101F20003E00216C012641F020012164216884F8E3
:101F30003C000868C00544BF4FF400702064304680
:101F400001B0BDE8F08300BFB9B9416909071DD4EC
:101F50004169490511D44169090717D44169490507
:101F60000BD44169090711D44169490505D4416978
:101F700009070BD441694905E7D5016841F40071AF
:101F800001606FF4806141610420F8E0FF2101EA03
:101F900008010161416989073AD4416919F10102D7
:101FA00001F4806112D051BBB9F1000F00F0E08064
:101FB000FFF73CFB401B484500F2DC80206841698C
:101FC000890725D441694905F2D518E0B9B94169B5
:101FD00089071DD44169490511D44169890717D47E
:101FE000416949050BD44169890711D44169490503
:101FF00005D4416989070BD441694905E7D50168D2
:1020000041F4007101606FF4806141610420B6E029
:102010000026009641690091816900910099218D07
:10202000002900F0958009F10108014651F8142FAC
:10203000120635D4B8F1000F16D0B9F1000F00F038
:10204000AF8000BF0868400500F1B280FFF7EEFAEC
:10205000401B484500F2A9802068014651F8142F22
:102060001206EFD51CE000BF0A68520500F1A080FF
:102070000A68120614D40A68520500F199800A68A9
:1020800012060DD40A68520500F192800A68120601
:1020900006D40A68520500F18B800A681206E3D55F
:1020A000636A194611F8012B02616162618D013981
:1020B0006185278D0146A7F1010CA4F828C051F8CD
:1020C000142F52070DD55FEA0C420AD05A78A7F1B7
:1020D000020C02619A1C6262628D013A6285A4F868
:1020E00028C00A6852072FD4B8F1000F14D0B9F1F4
:1020F000000F7BD00868400500F18080FFF796FA5A
:10210000401B484577D82068014651F8142F5207E4
:10211000F0D5B4F828C017E00A6852056ED40A68F2
:10212000520711D40A68520568D40A6852070BD4C2
:102130000A68520562D40A68520705D40A68520533
:102140005CD40A685207E7D55FEA0C417FF46DAFB3
:10215000016841F400710160202084F83D0084F89A
:102160003E6084F83C60304601B0BDE8F08300BFBB
:10217000FFF75CFA202002E0FFF758FA2020002148
:102180002022216384F83D2084F83E10226C012631
:102190001043206484F83C10304601B0BDE8F08361
:1021A0000868400504D4FFF741FA202004E000BF8E
:1021B0006FF480600860042000212022216384F8ED
:1021C0003D2084F83E10226C1043206484F83C10BB
:1021D000206C042825D120680126016841F4007193
:1021E0000160304601B0BDE8F08300BF08684005DB
:1021F00004D4FFF71BFA202004E000BF6FF48060D6
:102200000860042000212022216384F83D2084F806
:102210003E10226C1043206484F83C10206C04288B
:10222000D9D00126304601B0BDE8F083B0B586B004
:10223000016845F60000C4F20000814202D006B0F9
:10224000B0BD00BF002443F630050194C4F202057E
:102250002968122241F020012960296800F5DE304A
:1022600001F02001019101990321019104910421C0
:10227000059101A9CDE90224FFF7FAF80094286935
:1022800040F480002861286900F4800000900098E4
:1022900006B0B0BD40F2100041F63471C2F2000049
:1022A000C2F2000100780A6810440860704700001C
:1022B00080B543F60040C4F20200016841F40071A9
:1022C0000160016841F480610160016841F480713E
:1022D0000160032000F084F8002000F005F800F011
:1022E00027F8002080BD000070B540F21006C2F251
:1022F000000640F234013278C2F200014FF47A73E2
:102300000968B3FBF2F20446B1FBF2F1084601F0B2
:10231000D7FA0F2C4FF0010508D838B94FF0FF302D
:1023200021460022002500F02FF87460284670BD79
:1023300082B0002043F640010190C4F202014A68D5
:1023400042F480424A604A6802F480420192019A53
:102350000090086840F080500860086800F08050E5
:102360000090009802B07047002848BF704700F006
:102370001F01012202FA01F14EF200124009CEF2D1
:10238000000242F82010704710B54EF60C5CCEF2F9
:10239000000CDCF80030C3F3022E8EF00704042C8E
:1023A00028BF0424BEF103034FF0FF3E0EFA04F4ED
:1023B00038BF0023A14399400EFA03F39A43114317
:1023C00000F00F02043A624409010C3200F160434C
:1023D000B0F1FF3FC8BF03F56442117010BD0000AB
:1023E0004EF60C51CEF200010A684FF6FF031A4078
:1023F00060F30A2242F0806040F0FD700860704790
:102400007047000002680020516270472DE9F043D8
:10241000D0F80090D9F82400A1B1D9F82830B1F152
:10242000010800EB13435DD0A8F10100C0B20328FE
:1024300008F0030C0ED24FF0010E0027BCF1000F84
:1024400033D14FE040EA0240C9F828000020BDE83F
:10245000F08300BF08F0FC0E09F1F404002009F538
:10246000827500BF54F8107F064603EB174046F014
:102470000103DBB246F0020755F82330FFB255F8EE
:10248000277000EB134000EB174346F00300C0B287
:1024900055F82010301DC7B2774503EB1143E1D149
:1024A00006F1050EBCF1000F1CD009EB8700D0F837
:1024B0000401BCF1010F03EB104313D05FFA8EF05F
:1024C00009EB8000D0F80401BCF1020F03EB1043CC
:1024D00008D00EF10100C0B209EB8000D0F8040171
:1024E00003EB104343EA024009EB8801C1F8040101
:1024F0000020BDE8F0830000D0F8080503F00EB915
:1025000001EBC102D0F8083500EB8200C26C18461E
:1025100003F06CB801EBC102D0F8083500EB820083
:10252000D0F88C22184603F0BDB80000D0F808059A
:1025300003F0F6B810B50446080601F00F0000EBF2
:10254000C00104EB810205D402F51F71002382F85B
:102550007D3204E0012302F13C0182F83D3094F821
:10256000BC240870012A04BF022010BD206801228B
:1025700084F8BC2403F098FE002084F8BC0410BD4D
:10258000B0B54268044601F00F00904284BF0120BC
:10259000B0BD09060AD400EBC00104EB810202F5CC
:1025A0001F71002382F87D3209E000BF00EBC001FB
:1025B00004EB8102012302F13C0182F83D3094F8E2
:1025C000BC240025012A8D70087004BF0220B0BD14
:1025D0002068012284F8BC2404F0BEF9284684F85F
:1025E000BC54B0BD01F00F0101EBC10100EB810053
:1025F000D0F89C0270470000B0B50546080601F00F
:102600000F0000EBC00105EB810C05D40CF51F7128
:1026100000248CF87D4204E001240CF13C018CF88C
:102620003D404C780870002CCA600B7118BF0881BF
:10263000022B04BF0020487195F8BC04012804BF98
:102640000220B0BD2868012285F8BC2403F0E6FC16
:10265000002085F8BC04B0BD80B501F00F0C0CEB78
:10266000CC0100EB810ECEF894320023CEF89C32E0
:102670008EF87D320369CEF88C22012B8EF87CC255
:1026800008BFCEF8902200680EF51F71DAB2BCF1D7
:10269000000F03D004F0A8F9002080BD04F0B0F8CA
:1026A000002080BDB0B50446406801F00F058542AA
:1026B00084BF0120B0BD08060AD401EBC10004EBC1
:1026C000800000F51F71002280F87D2209E000BF24
:1026D00005EBC50004EB8000012200F13C0180F80D
:1026E0003D2094F8BC04012201288A700D7004BFBB
:1026F0000220B0BD206884F8BC2404F055F91DB157
:10270000002084F8BC04B0BD2068217C04F2C442DF
:1027100004F0F4F8002084F8BC04B0BD10B501F05A
:102720000F0C0CEBCC0100EB810E714601F83CCF95
:102730008B6100230B62036901244C70012B0A6139
:1027400008BFCEF850200068DAB2BCF1000F03D009
:1027500004F04AF9002010BD04F052F8002010BD2A
:102760002DE9F04F8BB005688246284604F036FB11
:1027700010B10BB0BDE8F08FDAF8000004F05CFB9C
:102780000028F6D0D5F80808C0F30D21DAF80000CB
:10279000CAF8FC1404F050FB0146DAF8000089077F
:1027A00003D5416901F00201416105F50061039122
:1027B00004F042FB0146DAF80000C90605953BD556
:1027C000816921F0100181612C6AC4F3434006281D
:1027D00004F00F0518D0022827D147F6F07014EA4C
:1027E000000622D005EBC5000AEB8007D7F88C1253
:1027F00034090598224604F023FBD7F88C0200EB3D
:102800001610C7F88C0207E005980AF2C4410822A6
:1028100004F016FBC4F30A1405EBC5000AEB8000B4
:10282000D0F89C122144C0F89C12DAF800008169AB
:1028300041F010018161059D04F0FEFA0003CDF81E
:1028400028A040F1ED80DAF8000004F0D3FA002867
:1028500000F0E68006460AF2C4400AF527784FF4F5
:1028600030644FF0000B09901BE000BF28190221D3
:1028700081605FEA8A6042BF2819202181605FEA97
:102880008A40DDF828A042BF28194FF4005181602A
:102890000BF1010B760804F1200408F1240800F084
:1028A000BF80F007F4D0DAF800005FFA8BF94946F0
:1028B00004F0BAFA8246C00762D02819012181606B
:1028C0000A9F38682118036C8A683F69012F29D153
:1028D000170735D4970600F19B8012F0280F4FD1CF
:1028E00043F20B07C4F65477BB4202D312F4004202
:1028F0002FD158F8042C0969BBF1000F6FF3DF41A9
:10290000A2EB0101C8F8001035D10A9BD3F894223C
:10291000002A00F08380D3F88C020844C3F88C02AC
:1029200029E000BF43F20B07C4F65477FF37BB42E0
:1029300016D110040DD4900644BF202088601AE000
:1029400043F20B00C4F65470834219D312F40040D2
:1029500016D04FF4004088605FEA0A7013D437E065
:10296000BBF1000F07D10A99D1F8941219B90021CF
:10297000099A03F0C3FF0A984946FFF7CBFD00BF51
:102980005FEA0A7024D52819082181600A9843F269
:102990000B020068C4F65472056C20448168571E0F
:1029A000BD4205D911F400411CBF4FF400418160C4
:1029B0000A9800F087FCBD42059D09D90A98006974
:1029C000012805D10A98099A0068012103F096FFB1
:1029D0005FEACA6042BF2819102181605FEA8A70ED
:1029E0007FF547AF6869000604D50399486840F44D
:1029F0008060486018F81D0C01287FF437AF002074
:102A000008F81D0C0A98494600F046FB2EE700BF67
:102A1000202088605FEA0A70B5D4D9E70121A7E7D2
:102A2000DAF8000004F008FA039E400340F1DE806B
:102A3000DAF8000004F0D6F9002800F0D78005F598
:102A4000106104910AF2C4414FF0000B029104E0BE
:102A500040080BF1010B00F0C980C107F8D00690C7
:102A6000DAF800005FFA8BF1099104F0CBF9049FCA
:102A70000446C00728D00BF00F00716B012202FA48
:102A800000F021EA0000706307EB4B108260DAF877
:102A90001000012814D10BEBCB000AEB8000D0E929
:102AA0001212BBF1000F1144C16409D1DAF85400CD
:102AB00030B9DAF80000029A012103F01FFF00BFCD
:102AC00009995046FFF71CFD200742BF07EB4B104A
:102AD00008218160E00642BF07EB4B1010218160A6
:102AE000600642BF07EB4B1040218160A00715D55F
:102AF0002846594604F008F90BEBCB000AEB80009E
:102B000010F83F1F012905D1002101700999504695
:102B100000F0BEFA07EB4B100221816020060698F8
:102B200096D50BEBCB010AEB8104A14659F8542F43
:102B3000C84658F8087FBA428AD3DAF8005054F8E9
:102B4000483FD11B994288BF1946089505EB4B1C9D
:102B5000DCF818590331ADB2B5EB910F28BFBA427A
:102B600004D8059DBA423FF673AF33E004F1040A7E
:102B7000DAF800100CF51065079400BF0A98D41B12
:102B80009C42067C88BF1C46DDE90802A3B2009681
:102B900004F080FADAF80000E31C0119D8F800000C
:102BA000CAF800100719C8F80070AA6996B2D9F8D7
:102BB0000020B6EB930F28BFBA4203D907980368E9
:102BC000DCE700BFDDF828A0039EDDE90550BA422E
:102BD0003FF63EAF089F0BF00F02D7F834180123E1
:102BE00003FA02F29143C7F8341831E7DAF800002B
:102BF00004F022F9002823D4DAF8000004F01CF9CC
:102C000000053AD4DAF8000004F016F9C00444D5FF
:102C1000D5F80408102120F00100C5F80408DAF8FE
:102C2000000004F071F8DAF80400002800F0F580E4
:102C3000411E032900F0030C32D200219CE000BFAA
:102C4000706820F0010070609AF8F404012807D140
:102C500000208AF8F40450460021FFF7D1FB02E07F
:102C6000504600F013FBDAF80000416901F0004122
:102C7000416104F0E1F80005C4D5B068C00702D096
:102C8000504600F047FBDAF80000416901F40061AA
:102C9000416104F0D1F8C004BAD4DAF80000EAE0E7
:102CA00020F0030E05F536634FF6A0564FF6C055DB
:102CB0004FF6E0544FF6006000214FF67F37CFF615
:102CC000FF76CFF6FF75CFF6FF74CFF6FF7000BF2B
:102CD000A3F5187297609A59043122F400129A51A0
:102CE00043F8587C53F8602C8E4522F4001243F8C8
:102CF000602C53F8602C42F0006243F8602CA3F57E
:102D0000107297605A5922F400125A5143F8387CD5
:102D100053F8402C22F4001243F8402C53F8402C76
:102D200042F0006243F8402CA3F5087297601A59EC
:102D300022F400121A5143F8187C53F8202C22F484
:102D4000001243F8202C53F8202C42F0006243F884
:102D5000202CA3F5007297601A5822F400121A5022
:102D60009F601A6822F400121A601A6842F000622A
:102D70001A6003F18003ABD1059D039EBCF1000FE7
:102D80004BD005F5106000EB41124FF67F334F0139
:102D90009360C65905F5306226F40016C65102EB61
:102DA0004116B360D659BCF1010F26F40016D65176
:102DB000D65946F00066D651039E2ED04F1C00EB2C
:102DC00047157E01AB60855902EB471725F40015C6
:102DD0008551BB609359BCF1020F23F4001393514A
:102DE000935943F000639351039E16D0023100EBD8
:102DF00041174FF67F364B01BE60C75827F40017C6
:102E0000C75002EB41108660039ED05820F400109A
:102E1000D050D05840F00060D050F06940F0011020
:102E2000F061DAF8300048B1D6F8840040F00B00C9
:102E3000C6F8840006F1440007E000BF706942F262
:102E40002B010843706106F1100001680AF2C442C8
:102E500041F00B010160306820F4FE603060DAF868
:102E600000009AF8101003F049FDDAF800004169FB
:102E700001F48051416103F0DFFF0146DAF8000000
:102E800089041AD503F010F9DAF8000003F098FF6E
:102E9000DAF80040CAF80C0000F006FB9AF80C20A3
:102EA0000146204604F066F8504600F0D9F9DAF8F9
:102EB0000000416901F40051416103F0BDFF0007CA
:102EC00006D4DAF8000003F0B7FF00060DD435E0B1
:102ED000504600F0DFF9DAF80000416901F008011E
:102EE000416103F0A9FF000628D50599886920F003
:102EF00080008861DAF8040002281FD30AF2A324B4
:102F0000012504E00135854204F1240416D221781C
:102F10000129F7D105F00F0000EBC0000AEB800299
:102F20002806DAF8000002F13C0158BF02F51F71D3
:102F300003F05AFEDAF80400E4E700BFDAF8000014
:102F400003F07AFFC0024FD4DAF8000003F074FFF8
:102F5000059D800240F17E80DAF8040002282AD321
:102F6000013805F532610AF52972012306E000BF38
:102F7000013801F1200102F124021CD00F681678FB
:102F8000012EF5D1B7F1FF3FF2DCDAF8FC6407F46B
:102F9000803706F00106B742EAD102F8013CAF697A
:102FA00047F08007AF616F693F06E1D40399486835
:102FB00040F400704860DAF80000416901F4001143
:102FC000416103F039FF40004AD55046FFF794FABB
:102FD000DAF80000416901F08041416103F02CFF03
:102FE00040077FF5C6AB42E0DAF80400022825D39B
:102FF00005990AF1640501F512640126012705E02F
:1030000001372034874205F1240517D221682A7838
:10301000012AF5D1B1F1FF3FF2DC07F00F0000EB20
:10302000C0000AEB8001DAF800003C3105F8016CC1
:1030300003F0DAFDDAF80400E2E700BFDAF8000096
:10304000416901F48011416103F0F6FE059D8002A3
:103050003FF582AFDAF8000003F0EEFE4000B4D492
:10306000DAF8000003F0E8FE40077FF582ABDAF8FB
:1030700000004468610704D55046FFF757FADAF8B4
:1030800000004168214341600BB0BDE8F08F0000B3
:10309000D0F8080502F0A0BBD0F8080502F0B0BBDC
:1030A0002DE9F04F8BB0002800F0868004460568BB
:1030B00090F8BD0428B9002084F8BC04204600F034
:1030C0008FF8032084F8BD04E86BC0055CBF0020C6
:1030D0002061206803F08CFB206804F11C0A0A9030
:1030E000D4E90C5004F1040E9AE8C0079EE80E588B
:1030F000CDE9085003A880E8C0030A988DE800587D
:10310000CDF81CA002F0E0FF002852D12068002179
:10311000002503F0EBFE616861B30120002300226B
:1031200003EBC30304EB830787F83C20D3B20132DF
:10313000A7F84430D3B2994287F83D0087F8405051
:10314000C7E912557D65EBD800200023002200BF9F
:1031500003EBC30304EB830787F87C220132D3B26D
:10316000994287F87D0287F88002C7E9A200C7F874
:103170009402EDD8A06822680A90D4E90C5004F1BA
:10318000140E04F1240AD4E903379EE840589AE863
:103190000007CDE9085002A880E8005810460A9AB6
:1031A000CDE90076CDE90589CDF81CA003F0DEF865
:1031B00040B1022084F8BD04012528460BB0BDE8CB
:1031C000F08F00BF0025012084F8385084F8BD043A
:1031D000206803F0BBF828460BB0BDE8F08F000074
:1031E000B0B586B00068B0F1A04F01D006B0B0BD58
:1031F000002543F630040195C4F20204206801A9B9
:1032000040F001002060206800F00100019001986A
:103210004FF4C05001900220CDE902050320049034
:103220000A2005900020C4F20200FEF721F9606830
:10323000002140F08000606000956069002240F449
:1032400080406061606900F48040009000984320F5
:10325000FFF79AF84320FFF787F806B0B0BD0000EB
:1032600010B50446C06828B1022818BFFDF722FD3A
:10327000012100E00021D4F8080502F047FBD4F852
:103280000805BDE8104002F0F5BA0000D0F80805C6
:1032900002F024BBD0F8080502F02ABB10B50446A2
:1032A00090F8BC04012804BF022010BD012084F85E
:1032B000BC0484F83810206803F04AFE002084F82B
:1032C000BC0410BDD0F8082500F2C441104602F03D
:1032D00033BB000010B5044690F8BC04012804BFBD
:1032E000022010BDA16A20680122012984F8BC24B3
:1032F00006D1A169012903D0816B41F4803181633A
:1033000003F0FAFC206803F011F8002084F8BC04F4
:1033100010BD000010B50446D0F8080502F062FBAD
:103320002068D0F8001E41F00101C0F8001E206A9C
:10333000002808BF10BD4EF61050CEF20000016804
:1033400041F00601016010BD2DE9F041002800F0B8
:103350008B8043F60808C4F202080446D8F8F80344
:103360000D4600F00700884207D288F8F853D8F8D5
:10337000F80300F00700A84276D12068810717D52E
:10338000410705D5D8F8001041F4E051C8F8001005
:10339000010705D5D8F8001041F46041C8F80010C5
:1033A000D8F80010A26821F0F0011143C8F800100D
:1033B000C0073FD1D8F8F80300F00700A84207D9AA
:1033C00088F8F853D8F8F80300F00700A8424BD16A
:1033D0002068410707D5D8F80010E26821F4E051D1
:1033E0001143C8F80010000708D5D8F8000021697B
:1033F00020F4604040EAC100C8F8000000F06EF818
:10340000D8F8001047F6E232C1F30311C0F600020B
:10341000515C40F2340220FA01F140F21400C2F291
:1034200000000068C2F200021160FEF75DFF00209C
:10343000BDE8F0816068811E022907D258F8081C97
:1034400089015CBF0120BDE8F08111E0012807D1AE
:1034500058F8081C89035CBF0120BDE8F08107E033
:1034600058F8081C890703D40120BDE8F08100BF8B
:10347000D8F8001021F003010843C8F80000FEF757
:10348000D5F8064641F28837D8F80000616800F0A8
:103490000C00B0EB810F8DD0FEF7C8F8801BB8424E
:1034A000F2D90320BDE8F08140F23400C2F20000FE
:1034B0000068704740F2340043F60801C2F2000091
:1034C000C4F202010068096847F6F232C1F38221B2
:1034D000C0F60002515CC8407047000010B543F6CA
:1034E0000404C4F20204606800F00C0008280BD049
:1034F000042819BF42F20040C0F2F40041F6003047
:10350000C0F2B70010BD00BF2068216823684902DF
:1035100041F60031C0F2B70100F03F02C3F388105A
:103520005CBF42F20041C0F2F401A1FB00010023A4
:10353000FCF7F4FE21680222C1F3014102EB4101D4
:10354000B0FBF1F010BD00002DE9F04182B0002881
:103550006AD00446007843F60006C007C4F20206AB
:103560000BD0B06800F00C00042840F0A180306857
:10357000800302D56068002856D0207880071AD5CD
:10358000B06810F00C0F09D0B06800F00C000828EB
:1035900040F0A8807068400200F1A4803068800785
:1035A00002D5E06801283FD13068216920F0F80099
:1035B00040EAC10030602078000739D42078400705
:1035C0004ED4A5695DB3B06800F00C00082840F047
:1035D000BD80012D28D07068E16900F480028A4224
:1035E00022D1216A00F03F028A421DD147F6C07104
:1035F000626A0140B1EB821F16D1A26A0023CFF6A6
:10360000FF7303EBC23200F440316FF30F029142BB
:103610000AD1E16A00F07060B0EB016F04D10020C4
:1036200002B0BDE8F08100BF012002B0BDE8F0812A
:103630006069002840F20000C4F2472076D00121E2
:10364000C0F8801EFDF7F2FF054600BF706F8007CF
:10365000B4D4FDF7EBFF401B0228F7D9DDE000BF33
:10366000306C10F080580AD100200190306C40F08E
:1036700080503064306C00F080500190019847F227
:103680000007C4F200073868C00541D4386840F428
:1036900080703860FDF7CAFF054600BF3868C00576
:1036A00036D4FDF7C3FF401B0228F7D9B5E000BFB1
:1036B000B06800F00C00082803D1706840023FF5A4
:1036C00056AF6068B0F5803F07D0B0F5A02F40F04E
:1036D0008D80306840F480203060306840F4803065
:1036E00030608DE0E068002852D00020C4F247200E
:1036F00001210160FDF79AFF054600BF3068800791
:103700003FF552AFFDF792FF401B0228F6D984E047
:10371000A068012805D005284ED1306F40F0040084
:103720003067306F40F0010030674FE00021C0F893
:10373000801EFDF77BFF0546706F80077FF53EAF6B
:10374000FDF774FF401B0228F6D966E00027C4F29B
:10375000472700203866FDF769FF022D05460BD18B
:10376000306880015ED5FDF761FF401B02284FF0F5
:103770000300F5D954E700BF306880017FF54FAFF3
:10378000FDF754FF401B02284FF00300F4D947E730
:103790000020C4F2472000210160FDF747FF0546E5
:1037A000306880077FF507AFFDF740FF401B022818
:1037B0004FF00300F4D933E7316F002821F0010105
:1037C0003167316F21F0040131674DD0FDF72EFFD5
:1037D000054641F2883700BF306F800756D4FDF7A9
:1037E00025FF401BB842F7D917E000BF3168002819
:1037F00021F480313160316821F4802131604FD073
:10380000FDF714FF054600BF306880033FF5B5AEF5
:10381000FDF70CFF401B6428F6D9032002B0BDE879
:10382000F08100BF04F11C052FCD08430021CFF625
:10383000FF7140EA821001EBC3316FF30F0140EAE0
:1038400005600843706001203866FDF7EFFE04460E
:10385000306880013FF5E3AEFDF7E8FE001B02286B
:103860004FF00300F4D9DBE6FDF7E0FE054641F238
:10387000883700BF306F800708D5FDF7D7FE401BA3
:10388000B8424FF00300F5D9CAE600BFB8F1000F07
:103890007FF497AE306C20F08050306491E600BF2A
:1038A000FDF7C4FE054600BF306880037FF565AEB6
:1038B000FDF7BCFE401B64284FF00300F4D9AFE6CF
:1038C000411E0020B0EB116F1CBF012070474EF26B
:1038D0001002CEF2000251604EF62351CEF20001EA
:1038E000F0230B700721906011607047B0B590F81D
:1038F0003C20012A04BF0220B0BD01F108053CCDE7
:10390000D1E900CE23F47C5322F470521A432EF4F2
:10391000F0431A432CF4E0431A4324F4C0431A43FF
:103920002A43C96922F48042036811435964002183
:1039300080F83C100846B0BD10B590F83C20012A34
:103940004FF0020251D080F83D200268D2F804E026
:10395000D2F808C00C682EF07003234341F2FF74C4
:10396000C4F20004A24253600EDC40F2FF73C4F2C2
:1039700000039A4216DCB2F1804F2BD040F2004394
:10398000C4F2000324E000BF40F2FF33C4F201039D
:103990009A4213DC41F60003C4F200039A4219D0A4
:1039A000002313E040F60003C4F200039A4211D052
:1039B00040F60043C4F200030AE000BF44F20003F3
:1039C000C4F201039A4205D040F20043C4F201035D
:1039D0009A4204D149682CF0800319439160012177
:1039E000002280F83D1080F83C20104610BD0000F9
:1039F000002804BF0120704710B5044690F83D0030
:103A000028B9002084F83C00204600F01FF802206E
:103A100084F83D002068211D01F08EF8012084F813
:103A2000460084F83E0084F83F0084F8400084F8A3
:103A3000410084F8420084F8430084F8440084F88C
:103A4000450084F83D00002010BD000082B00068F1
:103A500040F20041C4F20101884215D00021C4F2B5
:103A6000010188421FD10020019043F64400C4F2B6
:103A70000200016841F001010160006800F00100EE
:103A80000190019802B070470020009043F6440076
:103A9000C4F20200016841F002010160006800F018
:103AA00002000090009802B07047000090F83D10AE
:103AB00001291CBF01207047022180F83D100068D9
:103AC00041F2FF71C4F2000188420DDC40F2FF7147
:103AD000C4F20001884215DCB0F1804F2AD040F2D8
:103AE0000041C4F2000123E040F2FF31C4F20101C1
:103AF000884213DC41F60001C4F20001884219D06B
:103B0000002113E040F60001C4F20001884211D008
:103B100040F60041C4F200010AE000BF44F2000197
:103B2000C4F20101884205D040F20041C4F2010113
:103B3000884206D1816801F00701062904BF0020F0
:103B40007047016841F001010160002070470000EA
:103B500080B590F83C20012A4FF0020200F0C280AC
:103B600080F83D20D0F800C04FF67772DCF80830BE
:103B700023EA0202CCF808200B684F2B28DC1F2B0D
:103B800044DD202B45D0302B43D0402B40F0AC807F
:103B9000D1F804E0C968DCF82030DCF8202022F0FD
:103BA0000102CCF82020DCF8182022F0F00242EAD2
:103BB000011123F00A0242EA0E02CCF81810CCF8E8
:103BC0002020DCF8081041F0470121F0300180E0AE
:103BD0006F2B27DDB3F5005F48D0B3F5805F7AD057
:103BE000702B40F08180D1E901E3C968DCF808203E
:103BF00043EA0E0322F47F4243EA01211143CCF849
:103C00000810DCF8081041F0770162E00BB1102BCE
:103C10006AD1DCF8081021F07001194341F0070166
:103C200057E000BF502B35D0602B5DD1D1F804E0B8
:103C3000C968DCF8203023F01003CCF82030DCF821
:103C40001830DCF8202023F4704322F0A00243EA6D
:103C5000013142EA0E12CCF81810CCF82020DCF822
:103C6000081041F0670121F0100132E0D1E901E3D1
:103C7000C968DCF8082043EA0E0322F47F4243EAD5
:103C800001211143CCF80810DCF8081041F4804100
:103C90001FE000BFD1F804E0C968DCF82030DCF890
:103CA000202022F00102CCF82020DCF8182022F09D
:103CB000F00242EA011123F00A0242EA0E02CCF8B5
:103CC0001810CCF82020DCF8081041F0570121F042
:103CD0002001CCF808100022012180F83D100021BD
:103CE00080F83C10104680BD0122F5E7F0B587B0A2
:103CF000006840F20041C4F2010100258842CDE98C
:103D00000555CDE90355029524D00021C4F20101E7
:103D1000884252D1002043F630010190C4F20201E2
:103D20000A6842F010020A60096801F0100101916E
:103D300001994FF4D44102910221CDE9031005907D
:103D40000120069040F60000C4F2020000F5006475
:103D50002FE000BF43F630000195C4F20200016875
:103D600040F6000441F4807101600168C4F202046D
:103D700001F480710191019901950168022641F0D9
:103D8000040101600068032700F00400019001981D
:103D9000C020029004F5C05002A9CDE90365059545
:103DA0000697FDF765FB4020CDE90206CDE90455F5
:103DB000069702A92046FDF75BFB07B0F0BD0000A7
:103DC0002DE9F04190F83C30012B04BF0220BDE802
:103DD000F0814FEAB202032A00F2FC80DFE802F031
:103DE000023E7EBE036840F200471A6A43F48065D3
:103DF00022F001021A621C6A1A46D3F804E052F853
:103E000018CF8E6824F00204C4F20107BD4244EAD0
:103E1000060405D1CE6824F00C0426F004063443D1
:103E20000E68BD4207D1D1E905572EF4407E45EA20
:103E30000E0545EA070E2CF073073743C3F804E07C
:103E40009F614F6809695F631C629F6947F00807BB
:103E50009F619F6927F004079F61B1E0036840F20A
:103E600000481A6A43F4806522F010021A621C6A44
:103E70001A46D3F804E052F818CF8F6824F02004D3
:103E8000C4F20108454544EA071407D1CF686FF032
:103E9000400624F0C00406EA071634430F6845457F
:103EA00007D1D1E905562EF4406E4EEA850545EA64
:103EB000860E2CF4E64646EA0727C3F804E09F6125
:103EC0004F6809699F631C629F6947F400679F619F
:103ED0009F6927F480679F6171E000BF036840F22B
:103EE00000481A6A43F4806522F480721A621C6AE0
:103EF0001A46D3F804E052F81CCF8F6824F40074FB
:103F0000C4F20108454544EA072408D1CF6840F2CD
:103F1000FF463F0224F4406427EA060634430F6854
:103F2000454507D1D1E905562EF4405E4EEA051508
:103F300045EA061E2CF073063743C3F804E0DF6140
:103F40004F680969DF631C62DF6947F00807DF61BA
:103F5000DF6927F00407DF6132E000BF036840F249
:103F600000451A6A43F4806722F480521A621A46A6
:103F7000D3F820C05C6852F81CEFD1F800808E683E
:103F8000C4F20105AF4204D14D6924F4804444EAEF
:103F900085142CF4005747EA06372EF4E64646EA25
:103FA00008265C60DE614E6809691E641F62DF6975
:103FB00047F40067DF61DF6927F48067DF6109028A
:103FC0001368194311600021002280F83C20084644
:103FD000BDE8F0810121002280F83C200846BDE8C0
:103FE000F0810000002804BF0120704710B504468E
:103FF00090F83D0028B9002084F83C00204600F0ED
:104000001FF8022084F83D002068211D00F094FD77
:10401000012084F8460084F83E0084F83F0084F8CC
:10402000400084F8410084F8420084F8430084F89A
:10403000440084F8450084F83D00002010BD0000D5
:104040007047000041B1082910D0042914BF00F1C5
:10405000410200F13F020BE090F83E20012A1CBF14
:1040600001207047022280F83E2013E000F1400258
:104070001278012A1CBF012070470222082907D0AC
:10408000042914BF80F8412080F83F2002E000BFDF
:1040900080F84020006801F01F010122036A02FA43
:1040A00001F123EA01020262026A114341F2FF7246
:1040B000C4F20002904201620CDC40F2FF71C4F2D3
:1040C0000001884214DCB0F1804F37D040F200414B
:1040D00016E000BF40F2FF31C4F20101884215DC56
:1040E00041F60001C4F20001884227D0002115E00A
:1040F00040F60001C4F2000188421FD040F60041A2
:10410000C4F20001884219D01FE000BF44F2000150
:10411000C4F20101884211D040F20041C4F2010111
:10412000884212D1416C40F2004340F48062C4F2F4
:10413000010341F400419A42416406D1816801F0D3
:104140000701062904BF00207047016841F0010102
:104150000160002070470000FEE7000010B541F646
:10416000AC0046F20041C2F20000C4F2000103229A
:1041700000234FF0807480E80E0000F10C014FF432
:10418000102C4FF4001E81E8085084618383FDF7F2
:104190003BF8002808BF10BDBDE81040FCF78ABD01
:1041A00081B0002143F630000091C4F202000268A1
:1041B00042F001020260026802F001020092009ADD
:1041C0000091026842F008020260026802F00802F0
:1041D0000092009A0091026842F4807202600268C4
:1041E00002F480720092009A0091026842F020026C
:1041F0000260026802F020020092009A00910268B8
:1042000042F080020260026802F080020092009A8E
:104210000091026842F004020260026802F00402A7
:104220000092009A0091016841F01001016000685D
:1042300000F010000090009801B0704780B541F682
:10424000D40045F60001C2F20000C4F2000141F6BC
:10425000802200234FF4804CC0F2060280E80E005A
:10426000C0E9033CC0E90533C0E90733FDF7E4F9D1
:10427000002808BF80BDBDE88040FCF71BBD0000E2
:1042800010B596B041F6346000220021C2F2000061
:10429000C4F20102A72344F61F641591CDE913115E
:1042A0001191CDE90F11CDE90D11CDE90B11CDE93A
:1042B0000911CDE90711CDE90511CDE90311CDE9CA
:1042C0000111C0E90023C0E90214C0E904118161B1
:1042D000FFF78EFB002818BFFCF7ECFC4FF4805072
:1042E000129041F63460C2F2000012A9FFF730FCD0
:1042F000002818BFFCF7DEFC41F63460C2F2000073
:10430000FFF770FE002818BFFCF7D4FC41F63460BC
:104310000024C2F2000010A9CDE91044FFF70CFB05
:10432000002818BFFCF7C6FC602009904FF4FA6023
:10433000CDE90A0441F63460C2F2000009A9002266
:10434000CDE90C44CDE90E44FFF73AFD002818BF33
:10435000FCF7B0FC41F63460C2F2000009A9042267
:10436000FFF72EFD002818BFFCF7A4FC41F63460CF
:10437000C2F2000009A90822FFF722FD002818BF99
:10438000FCF798FC41F63460C2F2000009A90C2247
:10439000FFF716FD002818BFFCF78CFC00200590E5
:1043A000CDE90300CDE901004FF40051089041F63A
:1043B00034600691C2F2000001A9FFF797FA0028C5
:1043C00018BFFCF777FC41F63460C2F20000FFF73B
:1043D0008DFC16B010BD000010B596B041F67C60A3
:1043E00040F200420021C2F20000C4F20102A72301
:1043F00044F61F641591CDE913111191CDE90F1108
:10440000CDE90D11CDE90B11CDE90911CDE9071168
:10441000CDE90511CDE90311CDE90111C0E9002372
:10442000C0E90214C0E904118161FFF7E1FA002834
:1044300018BFFCF73FFC4FF48050129041F67C60AF
:10444000C2F2000012A9FFF783FB002818BFFCF797
:1044500031FC41F67C60C2F20000FFF7C3FD00288A
:1044600018BFFCF727FC41F67C600024C2F2000074
:1044700010A9CDE91044FFF75FFA002818BFFCF738
:1044800019FC602009904FF4FA60CDE90A0441F666
:104490007C60C2F2000009A90022CDE90C44CDE9FC
:1044A0000E44FFF78DFC002818BFFCF703FC41F613
:1044B0007C60C2F2000009A90422FFF781FC0028F9
:1044C00018BFFCF7F7FB41F67C60C2F2000009A9B7
:1044D0000822FFF775FC002818BFFCF7EBFB002053
:1044E0000590CDE90300CDE901004FF4005108909B
:1044F00041F67C600691C2F2000001A9FFF7F6F9CF
:10450000002818BFFCF7D6FB41F67C60C2F2000021
:10451000FFF7ECFB16B010BD80B541F2D05040F271
:104520001801C2F20000C2F20001002201F024F8DA
:10453000002818BFFCF7BEFB41F2D05040F2380112
:10454000C2F20000C2F2000101F074FA002818BFA4
:10455000FCF7B0FB41F2D05040F2D401C2F20000AF
:10456000C2F2000100F03AFD002818BFFCF7A2FBE0
:1045700041F2D050C2F2000001F086FA002808BFD4
:1045800080BDBDE88040FCF795BB0000FEE7000061
:104590007047000041F62810C2F20000FEF7E0B8B4
:1045A000704700002DE9F04385B0FDF73FF840F279
:1045B0008815C2F2000540F204092969C2F2000917
:1045C000D9F80420401A9042C0F08081FDF72EF8FF
:1045D000A988286108B22B24002848BF2D2400296F
:1045E0004FF0010148D0002848BF404282B24CF64B
:1045F000CD4702FB07F3DB0C03EB8306A0EB46067B
:1046000046F0300609288DF8086037D95F43FF0C63
:1046100007EB8707A3EB470343F0300364288DF8CB
:10462000073031D3930841F27B477B435B0C4CF658
:10463000CD475F43FF0C07EB8707A3EB470343F02E
:104640003003B0F57A7F8DF80630C0F04381D00892
:1046500042F2C5025043000DCD224243D20A02EB82
:104660008202A0EB420040F030008DF805000520EA
:10467000042806D80BE000BF012008E0022004282F
:1046800005D9052011E000BF03200428F9D8C0F1A6
:10469000040250FA82F60DF10500801B043051FA35
:1046A00082F13022FBF7FDFE701C9DF805104CF6E0
:1046B000CD48302908BF8DF8054095ED070A0DF16A
:1046C000050420440021BCEEC00A00F8011C10EED5
:1046D000100A271D01210028CCF6CC4832D048BF53
:1046E0004042A0FB0823DA0802EB8203A0EB43035D
:1046F00043F0300309288DF80B3025D9A2FB08368A
:10470000F30803EB8303A2EB430242F03002642878
:104710008DF80A2028D348F21F52C5F2EB12A0FBF5
:1047200002025009A0FB0823DA0802EB8202A0EB88
:10473000420040F030008DF809000420420706D501
:1047400015E000BF012002E0022042070FD4C0F1B3
:10475000030250FA82F6A01B073051FA82F1302290
:10476000FBF79FFE701C03E003204207EFD50420F7
:104770003844002100F8011CE888E71D00284FF0AC
:10478000010C55D002B200EBE23080EAE236B0B262
:104790004CF6CD4300FB03F2D20C02EB8201A6EBF8
:1047A000410141F0300109288DF8101042D902FB77
:1047B00003F1C90C01EB8101A2EB410141F0300191
:1047C00064288DF80F103BD3810841F27B4251439E
:1047D000490C4CF6CD424A43D20C02EB8202A1EBCB
:1047E000420141F03001B0F57A7F8DF80E1077D399
:1047F000C10842F2C5025143090DCD224A43D20AF3
:1048000002EB8202A1EB420142F2107241F0300150
:1048100090428DF80D1067D3000940F247314843AC
:10482000C00C30308DF80C000620052805D80AE0B1
:10483000012008E00220052805D906200FE000BF6E
:1048400003200528F9D8C0F1050150FA81F6A01B14
:104850000C305CFA81F13022FBF723FE701C99F8D2
:104860000010C219002002F8010C09B3A1FB0823B3
:10487000DA0802EB8202A1EB420242F03002052983
:104880008DF811208DF8120016D12878A0FB08129F
:10489000D10801EB8101A0EB410141F0300100287A
:1048A00008BF30218DF8121000200E2106E000BF55
:1048B0003020ADF8110000E030200D2160540020C0
:1048C0008DF8130020460F21FCF7A0F905B0BDE8D4
:1048D000F08300BF042004283FF6D3AED7E600BF24
:1048E00004200528AFD9A8E705200528A5D8AAE700
:1048F00070B540F28816C2F200067069016859B1BD
:104900008268836903EB0214231D04F108022478F2
:10491000013C042C0BD9D1E000F11C0400F1200370
:1049200000F124022478013C042C00F2C7801B68AB
:10493000DFE804F0041E3A586C0000BF40F20402A5
:10494000C2F200021378022B00F2B8800023002983
:104950001370338100F0B280012900F0A880D0E903
:104960000132013292FBF3F606FB132282609EE0D5
:1049700040F20402C2F200021378012B7CD0002B1B
:1049800040F09C8003230029137000F097800129D8
:1049900000F08D80D0E90132013292FBF3F606FB84
:1049A0001322826083E000BF40F2040EC2F2000EC8
:1049B0009EF80040D2F800C0022C41D80222002903
:1049C0008EF800203381A6F80AC077D001296ED076
:1049D000D0E90132013292FBF3F606FB132282602A
:1049E00065E000BF40F20402C2F200021378013B0E
:1049F000012B07D8B6F908409368A34248D3654213
:104A0000AB4245D30920107070BD00BF40F20402D4
:104A1000C2F20002157815F0F70F4FD104250029D6
:104A20001570B38108BF70BD012940D0D0E90132B3
:104A3000013292FBF3F606FB1322826037E000BFDF
:104A4000062C3BD1B2780AB9002B03D4012A37D106
:104A5000012B35DB02228EF800203381A6F80AC034
:104A600061B3012923D0D0E90132013292FBF3F680
:104A700006FB132282601AE001B3012917D0D0E9A6
:104A80000132013292FBF3F606FB132282600EE044
:104A9000052313700022327081B1012907D0D0E9BB
:104AA0000132013292FBF3F606FB132282600269A7
:104AB00001390160511E016170BD00BF70BD00BFB2
:104AC00009208EF800000020308170BD0168C268A6
:104AD000C0E904127047000070470000FDF7DABB20
:104AE0004EF68850CEF2000001684FF0000C41F401
:104AF0007001016043F60001C4F202010A6842F04D
:104B000001020A60C1F808C00B684FF6FF72CFF6C9
:104B1000F6621A400A6043F21002C2F200424A6092
:104B20000A6822F480220A60C1F80CC04FF00061CC
:104B300040F8801C7047000010B540F6FF3E036847
:104B4000C4F2000E40F2004C7045C4F2010C27DCA8
:104B5000B0F1804F31D040F20042C4F200029042E6
:104B60002BD040F60002C4F20002904225D041F65C
:104B7000FF72C4F20002904229DC70453CDCB0F1C7
:104B8000804F5FD040F20042C4F20002904259D000
:104B900040F60002C4F20002904253D056E000BF3B
:104BA00040F60042C4F20002904206D0604504D0B4
:104BB0000022C4F201029042D9D14A6823F0700366
:104BC000134341F6FF72C4F200029042D5DD43F672
:104BD000FF72C4F20102904222DC42F20002C4F2EF
:104BE000000290422ED00022C4F20102904229D04D
:104BF000604527D02AE000BF40F60042C4F2000220
:104C000090421FD041F60002C4F20002904219D037
:104C100041F60042C4F20002904213D016E000BFF9
:104C200044F20002C4F2010290420BD044F60002AA
:104C3000C4F20102904205D044F20042C4F20102E3
:104C4000904203D1CA6823F44073134323F08002D7
:104C50004B69D1F800E08C681A430260C46240F4EA
:104C60008062C0F828E0624504BF09690163012140
:104C7000416110BDB0B5D0F8D42200EB8202D2F869
:104C8000C0323BB301F00F058C4605EB850100EB0C
:104C9000810151F8184F64B1D0F8C8E205EBC505A1
:104CA0000EEB8505D5F848E0B4FBFEF505FB1E4587
:104CB00095B10024C3F81442D2F8C402056935B195
:104CC000D3F8080203F504716246A8470024204681
:104CD000B0BD00BF0320B0BD00240C6061460022BF
:104CE000002300F089FE2046B0BD0000B0B50446A8
:104CF000D0F8D40204EB8000D0F8C05295B1204621
:104D000000F01EFDD4F8D412C5F80C0204EB8101AA
:104D1000D1F8C412D5F80402CA6805F503719047AA
:104D20000020B0BD0320B0BD70B58121044600F065
:104D30004BFC002520460121258700F045FC20463C
:104D40008221A4F8785100F03FFCD4F8D402E56445
:104D500004EB8000D0F8C01289B1D0F8C4024068DA
:104D60008047D4F8D40204F5307656F8200001F0DC
:104D70004DF9D4F8D40246F82050C4F8BC520020B3
:104D800070BD000010B5D0F8D41200EB8100D0F84F
:104D9000C0428CB1D0F8C41281B194F80002FF284F
:104DA0000CD08B6894F8012221469847FF2084F8A4
:104DB0000002002010BD00BF032010BD002010BD68
:104DC000014640F2B4000A22C2F200000A80704795
:104DD000F0B581B040F27007C2F2000704463846D1
:104DE000822100F03BFB06463846012100F036FBED
:104DF00005463846812100F031FB002E1CBF1021F2
:104E0000B171002D1CBF4021A98000281CBF40218A
:104E10008180432140F27000C2F20000218001B085
:104E2000F0BD0000F0B581B040F27007C2F200079B
:104E300004463846822100F011FB0646384601211F
:104E400000F00CFB05463846812100F007FB002EE0
:104E50001CBF1021B171002D1CBF4FF40071A9803F
:104E600000281CBF4FF400718180432140F2700084
:104E7000C2F20000218001B0F0BD0000F0B581B0A9
:104E800040F27007C2F2000704463846822100F063
:104E9000E5FA06463846012100F0E0FA05463846B4
:104EA000812100F0DBFA002E1CBF1021B171002D12
:104EB0001CBF4021A98000281CBF402181804321C4
:104EC00040F27000C2F20000218001B0F0BD00008D
:104ED0002DE9F04104464FF4077001F099F80028DD
:104EE0004ED04FF407710546FBF7E3FAD4F8D4022D
:104EF000402704EB8000C0F8C052207CC4F8BC52AC
:104F0000002808BF4FF400772046812102223B464B
:104F1000022600F089FC4FF0010820460121022200
:104F20003B46A4F8388000F07FFC1020A4F84E0027
:104F30002046822103220823A4F8788100F074FC23
:104F4000D4F8D4020027C5F8047204EB8000D0F82E
:104F5000C402A4F84C8000688047C5F81472C5F8F4
:104F60001872D5F804223AB1207C98B1204601216C
:104F7000402300F06DFC00263046BDE8F08100BF04
:104F8000D4F8D402002104EB8000C0F8C012022043
:104F9000BDE8F081204601214FF4007300F058FC79
:104FA0000020BDE8F081000080B5D0F8D41200EBFD
:104FB0008101D1F8C01279B190F810C0D1F8042263
:104FC00040230121BCF1000F08BF4FF4007300F033
:104FD0003FFC002080BD00BF032080BD00290FBF23
:104FE0000320D0F8D42200EB8200C0F8C41218BF0E
:104FF00000207047D0F8D42200EB8200D0F8C00225
:1050000000280EBF0320C0F80412002070470000E3
:10501000D0F8D43200EB8300D0F8C00200280FBFD4
:105020000320C0F80812C0F81022002070470000CA
:1050300070B582B00446D0F8D4020D4604EB80006F
:10504000D0F8C06200218DF80710ADF80410CEB181
:10505000297811F0600219D0202A5FD1EA88002A4D
:105060002CD0090636D46878314686F800022046EE
:10507000402A28BF402286F8012200F0A1F800262D
:1050800018E000BF0326304602B070BD68780B28D8
:1050900044D80026DFE800F0060E42424242424277
:1050A00042422C3A94F89C02032837D101A92046A9
:1050B000022225E0304602B070BD00BFD0F8C40225
:1050C000294683686878002200269847304602B057
:1050D00070BD00BFD0F8C402314683686878984735
:1050E000EA8820463146072A28BF072208E000BF89
:1050F00094F89C02032811D10DF1070120460122EA
:1051000000F078F80026304602B070BD94F89C029A
:10511000032803D10026304602B070BD2046294640
:1051200000F042F80326304602B070BD80B5D0F8DA
:10513000D41200EB8101D1F8C0223AB1D2F8141296
:1051400000294FF0010103D0084680BD032080BD37
:10515000C2F81412D2F81032D2F808228121C362A8
:1051600000F04AFC0021084680BD000080B5D0F860
:10517000B82252689047002818BF032080BD000065
:10518000002070470020704780B513460A46002172
:1051900000F05EFB002080BD80B513460A4600216A
:1051A00000F02AFC002080BD10B58021044600F0EC
:1051B000F5FB20460021BDE8104000F0EFBB0000E9
:1051C00080B513460A460321C0F894120021C0E9B5
:1051D000563300F03DFB002080BD000080B5052166
:1051E000C0F8941200210022002300F031FB0020BF
:1051F00080BD000080B513460A460221C0F8941213
:105200000021C0E9063300F0F7FB002080BD00005C
:1052100080B50421C0F8941200210022002300F080
:10522000EBFB002080BD000010B540F2B014C2F2CC
:1052300000040A4602A0214600F030F9204610BDC5
:1052400043444320436F6E666967000040F2C0002C
:105250001222C2F200000A807047000010B540F22E
:10526000B014C2F200040A4602A0214600F016F96A
:10527000204610BD43444320496E746572666163E5
:105280006500000040F2E8000422C2F200000A803B
:105290007047000010B540F2B014C2F200040A4694
:1052A00002A0214600F0FAF8204610BD53544D6983
:1052B00063726F656C656374726F6E69637300000F
:1052C00010B540F2B014C2F200040A4602A0214612
:1052D00000F0E4F8204610BD53544D333220566997
:1052E000727475616C20436F6D506F7274000000B2
:1052F000B0B547F61020C1F6FF70026883684FF022
:105300001A0C9B18A1F800C000F0A3804FF0370CD6
:105310001A0F0CEB13714068B3F1204F38BF02F144
:10532000300140F2EC02C2F20002917019014FF01C
:10533000000E0CEB117582F803E0C3F30364B1F1C6
:10534000204F38BF04F13005190215710CEB1175AF
:1053500082F805E0C3F30354B1F1204F38BF04F1E4
:105360003005190395710CEB117582F807E0C3F352
:105370000344B1F1204F38BF04F130051904157210
:105380000CEB117582F809E0C3F30334B1F1204F3F
:1053900038BF04F13005190595720CEB117582F8D0
:1053A0000BE0C3F30324B1F1204F38BF04F1300503
:1053B00019061573C3F303140CEB1175B1F1204FEB
:1053C0004FEA037103F00F0382F80DE038BF04F1D8
:1053D000300503F13704957382F80FE0B1F1204FE7
:1053E00038BF03F13004010F0CEB1073147482F812
:1053F00011E0B0F1204F38BF01F1300301010CEB97
:105400001174937482F813E0C0F30363B1F1204F79
:1054100038BF03F1300401021475C0F303530CEBE1
:105420001174B1F1204F4FEA003182F815E038BF16
:1054300003F130040CEB1173947582F817E0C0F39C
:105440000340B1F1204F38BF00F13003137682F8EA
:1054500019E040F2EC00C2F20000B0BD80B5B0F837
:1054600002C090F800E0F44516D9734650FA8EF069
:105470004278052A0BD106E090F800E050FA8EF051
:105480004278052A03D182788A4208BF80BD53FA48
:105490008EF39AB26245EFD3002080BD10B500288C
:1054A00068D00378B3B100F1020E4FF0000C00BFDA
:1054B0001EF8013C93B19EF800309BB19EF801307C
:1054C000A3B19EF802300CF1040C002B0EF1040E77
:1054D000EED10DE04FF0000C0AE000BF4CF0010CE3
:1054E00006E000BF4CF0020C02E000BF4CF0030CE1
:1054F0005FFA8CFC022303EB4C03138003220B7036
:105500004A7090F800E0BEF1000F33D0841C0222F4
:105510004FF0000C1AE000BF101DC0B20B5440F059
:10552000010001F800C06378002B08BF10BD901D7A
:10553000C0B20B5440F0010001F800C094F802E042
:105540000832BEF1000F04F1040413D0D3B201F805
:1055500003E043F0010301F803C014F8013C4BB130
:10556000901CC0B20B5440F0010001F800C0237839
:10557000002BD1D110BD0000002804BF03207047CC
:105580000023C0F8B832C0F8C4320029C0F8D032C5
:1055900018BFC0F8B412012180F89C12027000F00C
:1055A000D3B8000080B5D0F8C802FCF7E9FF40F29C
:1055B0000032C100C0F2013222FA01F1032888BF93
:1055C0000321C8B280BD000080B5D0F8C802FCF746
:1055D000B1FF40F20032C100C0F2013222FA01F103
:1055E000032888BF0321C8B280BD0000B0B50446BF
:1055F00091B194F89C02032851D1D4F8B8024269C1
:10560000002A4CD00020C4F8D4022046904700283D
:1056100008BF0020B0BD00BFD4F89402022837D1E3
:10562000D4E9070188420DD9431A204611461A468B
:10563000E361FFF7B1FD204600210022002300F0C6
:1056400007F925E010D1A16981420DD3D4F8980261
:10565000814209D22046002100220025FFF79CFD4F
:10566000C4F89852E7E700BF94F89C02032808D1D9
:10567000D4F8B802C16821B10020C4F8D402204691
:1056800088472046802100F089F92046FFF7A6FDD3
:1056900094F8A00200281CBF002084F8A00200207B
:1056A000B0BD000010B5044681B194F89C020328F7
:1056B0001FD1D4F8B8028269DAB10020C4F8D4024C
:1056C00020469047002808BF002010BDD4F894025F
:1056D00003280ED1D4E9570398420DD9C01AC4F853
:1056E0005C01984238BF0346204611461A46FFF730
:1056F0004BFD002010BD00BF94F89C02032808D188
:10570000D4F8B802016921B10020C4F8D4022046BF
:1057100088472046FFF77CFD002010BD0020704721
:1057200080B5012180F89C12D0F8B81231B14A68D6
:1057300001799047002818BF032080BD002080BD5C
:10574000D0F8C802FCF74EBF10B5017811B10020A7
:1057500010BD00BF41F62811C2F20001C1F80805D2
:10576000C0F8C8124FF0A0400422C1E90002022094
:105770000022C1E90302C1E906020846C1E9082284
:10578000C1E90B22FDF78CFC002818BFFBF792FA49
:1057900041F62814C2F2000420468021FCF732FEB4
:1057A000204600214022FCF731FE204601218022C4
:1057B000FCF72CFE002010BDD0F8C80201F07F02DB
:1057C00002EBC20200EB820000F13E02090658BF64
:1057D00000F27E221078704780B5D0F8D42200EB1A
:1057E0008202D2F8B8224AB190F89C32032B02D13F
:1057F000126A02B19047002080BD00BF032080BD27
:1058000080B5D0F8D42200EB8202D2F8B8224AB197
:1058100090F89C32032B02D1526A02B190470020CB
:1058200080BD00BF032080BD80B59446D0F8C8027B
:105830001A466346FCF7E0FE40F20032C100C0F2B7
:10584000013222FA01F1032888BF0321C8B280BDCA
:1058500080B5D0F8C802FCF7FFFE40F20032C1006C
:10586000C0F2013222FA01F1032888BF0321C8B235
:1058700080BD0000F0B581B00126002580F89C6253
:10588000C0F8945204464560D0F8B802C4F8A45257
:1058900084F8A05258B1426842B120460021904796
:1058A0000546002818BF032501E000BF002520465B
:1058B0000021002240234027FFF7B6FF2046802129
:1058C00000224023A4F86461C4F86071FFF7ACFFC4
:1058D000A6842846276201B0F0BD000090F89C1213
:1058E000042904BF90F89D1280F89C120020704794
:1058F00080B590F89C12032906D1D0F8B81219B1DE
:10590000C969002918BF8847002080BD02460020D1
:105910001174704780B5D0F8C802FDF7BFFC40F2A3
:105920000032C100C0F2013222FA01F1032888BF1F
:105930000321C8B280BD0000B0B500F2AA2504461C
:10594000284600F06BF80120C4F8940294F8AA02EB
:10595000B4F8B02200F01F010229C4F8982209D03F
:1059600001290DD091B920462946BDE8B04000F08C
:105970008DB800BF20462946BDE8B04000F040BACF
:1059800020462946BDE8B04000F0F6BA00F080019C
:105990002046BDE8B04000F001B8000080B5D0F866
:1059A000C802FCF77FFE40F20032C100C0F20132B3
:1059B00022FA01F1032888BF0321C8B280BD00008C
:1059C00080B5D0F8C802FDF785FC40F20032C10076
:1059D000C0F2013222FA01F1032888BF0321C8B2C4
:1059E00080BD0000014690F89C02042281F89D02CF
:1059F000002081F89C22704780B5D0F8C802FCF7DF
:105A00008DFE40F20032C100C0F2013222FA01F1F3
:105A1000032888BF0321C8B280BD00000A78027045
:105A20004A7842704A8842808A888280C988C180C8
:105A30007047000010B582B004460020ADF80600A3
:105A4000B1B1D4F8D42204F52E70C4F8B81250F8CD
:105A50002200C16A21B10DF106008847C4F8D002C6
:105A6000D4F8D8020130C4F8D802002002B010BD2A
:105A7000032002B010BD0000D0F8B822002A04BFF5
:105A80000020704712681047FFF79ABFB0B582B088
:105A90000D460978044611F0600111D0402901D06B
:105AA00020292FD1D4F8D402294604EB8000D0F865
:105AB000B8028268204602B0BDE8B040104700BF7F
:105AC0006878092800F2D080DFE800F00628CE3A96
:105AD000CE4666CE7E9200BF94F89C020138022822
